S00D0000617564696F2E7372656305
S31580000000971100009381419E93844181138481805E
S315800000106F00C0002300040013041400E31C94FE48
S31580000020170400001304441C970400009384C41B27
S31580000030138900006F0000010325040013044400A7
S31580000040E7000500E31A94FE930009006F00400064
S31580000050130101FF2324810023261100232291000E
S31580000060232021011304A00713051000EF00400B85
S315800000709377F50F63928704370900800327491E1B
S315800000808347070093F71700E39C07FE83A7418009
S315800000909305100003D4070013140401135404417C
S315800000A013050400EF00800E93051000135584405D
S315800000B0EF00C00D6FF09FFC930510001375F50FD0
S315800000C0EF00C00C6FF05FFA030510B09377150050
S315800000D063860704030600B0930730016318F600B1
S315800000E0130710002389E1806780000093071001C1
S315800000F06316F6002389018067800000938601815C
S3158000010083C70600138781803307F700938717001C
S3158000011093F777002300C7002380F60067800000EE
S31580000120130101FF23248100232291002320210132
S315800001302326110013040500EFF01FF903C7018180
S3158000014083C7118193861181630C0402E306F7FE4F
S31580000150138781803307F7000345070093871700CD
S3158000016093F777002380F6008320C1000324810063
S3158000017083244100032901001301010167800000E7
S31580000180E318F7FC1305F0FF6FF01FFE130101FF64
S31580000190232481002322910023202101232611007C
S315800001A01304050093840500EFF01FF213754500D4
S315800001B06316050083C7218163820702E39604FEE6
S315800001C0130510008320C10003248100832441008D
S315800001D0032901001301010167800000230080B01C
S309800001E06FF05FFED9
S30D800001E402FCFFFF00FCFFFF97
S705800000007A
