S00B00006463742E73726563DE
S3158000000097410000938101349384018A1384018986
S315800000106F00C0002300040013041400E31C94FE48
S3158000002017440000130404B297440000938484B1FB
S31580000030138900006F0000010325040013044400A7
S31580000040E7000500E31A94FE930009006F00400064
S3158000005037450080130101BB130585A32326114470
S31580000060232291442320214523286143232481444C
S31580000070232E3143232C4143232A51432326714384
S3158000008023248143232291432320A143EF20004D43
S3158000009013050010EF10007A130901029304011270
S315800000A0138704009306090093070000130B0900C9
S315800000B0930500041396270023A0F6002320F7005B
S315800000C03306C5002320F6009387170093864600E3
S315800000D013074700E390B7FE93090122130A000035
S315800000E0938B0900130C8000938A09001304000087
S315800000F033054401EF30401D23A0AA0023A2BA0095
S3158000010013041400938A8A00E31484FF130A1A00E6
S3158000011093890904E31A8AFC37440080130544A3B3
S31580000120EF20C043930A0000374C0080930C800078
S31580000130130D0004130A09009309000083250A00A1
S3158000014013050CA393891900EF204041130A4A0036
S31580000150E39699FF130544A3938A8A00EF20004013
S3158000016013090902E398AAFD130544A3EF20003F73
S3158000017013050100EF00805413850B00EF004059F2
S315800001809306010013860B0013050B00938504006C
S31580000190EF00007383250112374500801305C5A340
S315800001A0EF20C03B130544A3EF20403B130A000019
S315800001B0930A8000130B000493890400130900003E
S315800001C083A5090013050CA313091900EF20003934
S315800001D093894900E31659FF130544A3130A8A003D
S315800001E0EF20C03793840402E3186AFD130544A305
S315800001F0EF20C0368320C1440324814483244144B4
S31580000200032901448329C143032A8143832A414325
S31580000210032B0143832BC142032C8142832C414211
S31580000220032D01421301014567800000130101FC83
S315800002302328210337490080032609B483A64180F9
S31580000240232E1102232C8102232A91022326310395
S31580000250232441032322510323206103232E71018A
S31580000260232C8101232A91012328A1012326B10170
S315800002709304050013840500EF205032EF20D07CD4
S31580000280EF308004032609B483A64180EF30002036
S315800002901306050093860500138504009305040064
S315800002A0EF30C05C130605009386050093040500B5
S315800002B013840500EF30801D138604009306040026
S315800002C0930A0500138A0500EF30401C138604004C
S315800002D093060400EF30801B138604009306040007
S315800002E0930D0500138D0500EF30401A1386040028
S315800002F093060400EF3080191386040093060400E9
S31580000300930C0500138C0500EF304018138604000B
S3158000031093060400EF3080171386040093060400CA
S31580000320930B0500138B0500EF30401613860400EF
S3158000033093060400EF30801503A6818083A6C180D2
S31580000340930905001389050013850A0093050A00A1
S31580000350EF30C013130605009386050003A50181BF
S3158000036083A54181EF30805003A6818183A6C18118
S31580000370930A0500138A050013850D0093050D0069
S31580000380EF20D021130605009386050013850A0009
S3158000039093050A00EF20003403A6018283A64182DA
S315800003A0930A0500138A050013850C0093050C003B
S315800003B0EF20D01E130605009386050013850A00DC
S315800003C093050A00EF30804A03A6818283A6C18204
S315800003D0930A0500138A050013850B0093050B000D
S315800003E0EF20D01B130605009386050013850A00AF
S315800003F093050A00EF20002E03A6018383A641837E
S31580000400930A0500138A05001385090093050900E0
S31580000410EF20D018130605009386050013850A0081
S3158000042093050A00EF308044930A0500138A05007D
S3158000043013860400930604001385090093050900BA
S31580000440EF30C0041386040093060400EF300004E6
S3158000045003A6818383A6C183EF205014130605006B
S315800004609386050013850A0093050A00EF208026EF
S315800004708320C103032481038324410303290103C9
S315800004808329C102032A8102832A4102032B0102A6
S31580000490832BC101032C8101832C4101032D010192
S315800004A0832DC1001301010467800000130101FB45
S315800004B0232C4103232A510303AA418183AA018164
S315800004C02324810393060A0013860A0023229103BC
S315800004D02326110423248104232291042320210529
S315800004E0232E310323286103232671032320A103AE
S315800004F0232EB101130C0500938C0500EF20807824
S31580000500635E051413040C0093840C0013890A009F
S3158000051093090A0003AA818483AAC18403AB018458
S3158000052083AB418413060A0093860A0013050400F0
S3158000053093850400EF2090751306040093860400CB
S31580000540EF20D07413060C0093860C00EF20807C7D
S315800005506340051203AB818583ABC18503AA018500
S3158000056083AA418513060B0093860B0013050900A9
S3158000057093850900EF209071130609009386090080
S31580000580EF20D07013060C0093860C00EF20C07805
S315800005906340A01003AA818083AAC180130D400600
S315800005A01306090093860900130504009385040049
S315800005B0EF20401213060A0093860A00EF20106D82
S315800005C01306050093860500930B0500138B050023
S315800005D0EF20D06B13060C0093860C002326A10017
S315800005E0938D0500EF20C072630805028327C10042
S315800005F013060C0093860C001385070093850D0067
S31580000600EF2080716346A00A13840B0093040B00CD
S31580000610130DFDFFE3160DF88320C1040324810426
S3158000062083244104032901048329C103032A810306
S31580000630832A4103032C8102832C4102032D01026C
S31580000640832DC10113850B0093050B00832BC102FB
S31580000650032B0103130101056780000013090C00B9
S3158000066093890C0013840A0093040A006FF09FEAB2
S31580000670130504009385040013060B0093860B0074
S31580000680EF20D06013040500938405006FF09FE986
S31580000690130509009385090013060A0093860A004C
S315800006A0EF20D05E13090500938905006FF09FEB5C
S315800006B013890B0093090B006FF09FF537770100C4
S315800006C0130797A02320E500375701001307A7E7F4
S315800006D0930700002324E500379700001307B7A887
S315800006E02322F500930700002326F5002328E50042
S315800006F09307000037670000232AF5001307771F4A
S3158000070093070000232CE500232EF5006780000068
S31580000710130101FB23229103232EB101232481049B
S315800007202322910423202105232E310323286103CC
S315800007302326710303AB818783ABC18703A481869C
S3158000074083A4C18603A9018683A9418623248103C4
S315800007502320A10323261104232C4103232A51039A
S315800007602322A100130C00000327410093176C007D
S31580000770130A0000B30AF70063120A0C1305090076
S3158000078093850900EFF09FD2130605009386050036
S315800007901305040093850400EF204060631A0C0C57
S315800007A003A6818683A6C186EF20504E2326A1000C
S315800007B02324B1001305090093850900EFF01FCFAC
S315800007C00328C100032781001306050093860500D0
S315800007D01305080093050700EF20405C13173A00C5
S315800007E03387EA002320A7002322B700130A1A00C2
S315800007F013078000E312EAF8130C1C00E3164CF78B
S315800008008320C10403248104832441040329010431
S315800008108329C103032A8103832A4103032B01030E
S31580000820832BC102032C8102832C4102032D0102FA
S31580000830832DC101130101056780000013050A009D
S31580000840EF20D03103A6018783A64187EF2010448D
S3158000085013060B0093860B00EF205043EFF01F9D8D
S315800008601306040093860400EF2050426FF01FF3B6
S315800008702324A10013050C002326B100EF20102E9F
S3158000088003A6018783A64187EF20504003A6818770
S3158000089083A6C187EF20903FEFF05F9903A68186FC
S315800008A083A6C186EF20903E032881000327C100DE
S315800008B01306080093060700EF20503D6FF01FF2E5
S315800008C0130101B5232E3149B7490080232A5149A6
S315800008D0930A0500138589A22322914A2320214B5E
S315800008E0232C4149232861492326714923248149A0
S315800008F0232291492326114A2324814A2320A14970
S31580000900232EB147232CB102130B06001389060050
S3158000091093040000EF109044374A0080930B8000C8
S31580000920374C0080930C00048327810313942400A2
S31580000930130D00003304F4008325040013050AA375
S31580000940130D1D00EF10904113044400E3167DFF44
S3158000095013054CA393848400EF105040E39694FDD6
S31580000960138589A293040127EF10503F138C04004E
S31580000970130A0000930C0004931B3A0093192A0073
S31580000980B30B7B01B3893A0113040000B3878B0054
S3158000099003A6090003A5070083A547009356F641E1
S315800009A0330D8C00EF00907F2320AD002322BD0005
S315800009B01304840093894900E31A94FD130A8A007C
S315800009C0130C0C04E31A8AFA8327090003284900CA
S315800009D02328F10083278900232A01010328C900DF
S315800009E02320F102832709012322010303284901D9
S315800009F02324F10283278901232601030328C901C1
S31580000A002328F102930701072326F1008329C100D9
S31580000A1093870404232A01032320F10483A6041464
S31580000A2003A9040C83A5440C03A6441433872641EA
S31580000A30B3B7E6003305B6403305F5409357F50165
S31580000A403387E700B337F700B387A70003A804040A
S31580000A5003AC041C1395F701135717003367E500A1
S31580000A6083A8441C03A54404B30B880133B40B014B
S31580000A70B30A150133892601330454013306B600BF
S31580000A80330C8841B336D900B386C600135BF401B4
S31580000A90333888013305154133050541B30B7B0196
S31580000AA013D8F60103AF040803A3041833BB6B0104
S31580000AB03309280103AE440883A24418330B8B0004
S31580000AC0333809011314FB013308D80093DB1B006C
S31580000AD0B36B74019316F80133046F001359190030
S31580000AE033065E0033E92601B336E401B386C600D9
S31580000AF013DDF60133048D00333DA401330DDD0093
S31580000B009316FD01135414001358184033E48600DD
S31580000B1033862B0193561D40135B1B40B3357601FC
S31580000B20232CD100B3060B019358F501B385D5006C
S31580000B3093D6F501338C88013386C600B3381C0101
S31580000B40B388A800B336D6001395F801B386B600ED
S31580000B50135C1C00336C85019395F60193D6164081
S31580000B603305EC4083AF040083AE440083A3441076
S31580000B7093D8184093D71740935D1600232ED10043
S31580000B800326010383264103B38AF840B3EDB501FA
S31580000B90B335AC00B385BA402322E106232601058E
S31580000BA0232211052326F1072324D107232E71043E
S31580000BB0232C6104232AE105232851042324C1051B
S31580000BC02320F106EF00905D832FC10603AA04104F
S31580000BD08323C105832E8106B38C4F01032F4105E4
S31580000BE00323810593960501135D050133867E00F7
S31580000BF083220105032E810433EDA601338A4F41FA
S31580000C00B3B6FC01B38E7E40B386C600B3BF4F0138
S31580000C10B38FFE4193DAF60133036F4093DEFF0113
S31580000C20333F6F00330E5E40B38C9A01330EEE4134
S31580000C30B3BA5C01338A4E0193D70541B38ADA0091
S31580000C409355FE01B33EDA01B38EFE019396FA0107
S31580000C503383650093DC1C00B3EC9601B335B30097
S31580000C609396FE01135A1A0033EA4601B385C501ED
S31580000C700326010183264101135313001395F501C1
S31580000C8093DE1E403365650093D51540232ED1052E
S31580000C90232EF102EF009050832781019396050160
S31580000CA01355050133E5A6003303854013DE054160
S31580000CB033356500330EFE40330EAE40232C61047F
S31580000CC02324C10583284104032581028325C1028B
S31580000CD013060C0093860800EF00504C0328C104CD
S31580000CE08327C103939605011355050133E5A600B5
S31580000CF033892B41B306A501B3BB2B01330B0B41C3
S31580000D0093D50541330B7B4133BCA600B385F500F3
S31580000D108327C101330CBC009355FB01B388B641D0
S31580000D2033892501B3B61601330CFC40B335B900BF
S31580000D30330CDC400326010183264101B38565011E
S31580000D401395F501135919003365250193D515407F
S31580000D5023221105EF0090448327810133089401F3
S31580000D609396050193DA1A40135505013386570188
S31580000D7033E5A600B3368800B386C60013D9F601DC
S31580000D800323810533080901032E8104832EC105BF
S31580000D90333928013309D900330F6A009316F901D4
S31580000DA01358180033E806013386CE01B3364F0157
S31580000DB0B386C60013DBF601330FEB01333B6F01BD
S31580000DC0330BDB009316FB0133036A40135F1F006E
S31580000DD033EFE601B38ECE41B3366A0033848C405E
S31580000DE083284104B38EDE40B38AFA40B3BC8C00BC
S31580000DF013DEFE01B38C9A41330A6E0093DAFC014E
S31580000E00B30B154193DF0541333ECA0133848A0013
S31580000E10032741068327010633357501330EDE012C
S31580000E20B33A5401B38F8F41B38FAF409316FE010F
S31580000E300325010283254102B38A9A01135A1A00B7
S31580000E4033EA4601135414009396FA0133E486007C
S31580000E50135E1E401306070093860700232A11059A
S31580000E602328F105232601052324E1052322C10534
S31580000E70EF00D0320327C10393970501135505016F
S31580000E8033E5A700832F0105B307A50193D5054157
S31580000E9033B5A700B385E5003305B50033877741C1
S31580000EA00328C104B3B7E7003305F5413305F540A0
S31580000EB08327C101B3860D0113591940B3872701D2
S31580000EC033B6B6013306F6009357F601B386D700DC
S31580000ED0B3B7F600032F810483284105B387C70083
S31580000EE01396F70193D61600B366D60023A0D900D1
S31580000EF0135B1B40B386E80193D7174023A2F90002
S31580000F0033B61601B3076C013306F6009357F60124
S31580000F10B386D700B3B7F600B387C700032E410464
S31580000F201396F70193D61600B366D60023A0D9048C
S31580000F3093D71740B3864B0123A2F90433B67601C3
S31580000F40B387CF013306F6009357F601B386D700F1
S31580000F50B3B7F600B387C7001396F70193D616008A
S31580000F60B366D60023A0D90893DA1A40B306E40004
S31580000F7093D7174023A2F90833B68600B387AA0011
S31580000F803306F6009357F601B386D700B3B7F6005B
S31580000F903307E440B387C7003334E400B38AAA40FA
S31580000FA01396F701B38A8A4093D7174023A2F90C88
S31580000FB093D7FA013387E700B337F700B30B7A414B
S31580000FC093D61600B366D600B3875701333A7A01B3
S31580000FD0330EFE4123A0D90C330E4E419396F70172
S31580000FE093D7174023A2F9109357FE01B38B77014D
S31580000FF0B3B7FB00B3081F411357170033E7E6006A
S31580001000B387C701333F1F01330B8B4123A0E91000
S31580001010330BEB411397F70193D7174023A2F914AB
S315800010209357FB01B3881701B3B7F800B3876701FD
S3158000103093DB1B00B36B770193D818001397F701E6
S31580001040B36817010327C10193D7174023A2F91864
S31580001050B307B8413338F8003309E9403309094109
S315800010601357F901B307F70033B7E70033072701B2
S315800010709316F70193D71700B3E7F60023A0F91C60
S31580001080832701041357174023A0791523A0191924
S3158000109023A2E91C9384840093898900E39097981E
S315800010A08327C1000324C10093870720232EF102E2
S315800010B083268402832984010325C4018325C402EF
S315800010C033873641B3B7E6003386A5403306F6400C
S315800010D09357F6013387E700B337F700B387C70026
S315800010E003288400032C84031396F70113571700F3
S315800010F03367E6008328C4030326C400B30B880144
S31580001100B3893601330C884133091601B3B40B0118
S31580001110B385A5003338880133061641B3B6D900A6
S3158000112033060641B386B6009358F60113D8F60106
S31580001130032F040103230403338C8801B309380188
S31580001140032E440183224403B3381C0133B80901BA
S31580001150B388C8003308D800B38424011396F801F5
S3158000116033096F009316F801135C1C0093D919009C
S31580001170336C860113DBF40133065E00B3E9360176
S31580001180B336E901B386C600B30B7B0193DDF60166
S3158000119033BB6B01330B9B0033892D019314FB0109
S315800011A0B33DB90193DB1B00B3EB7401B38DDD0056
S315800011B013581840B3843B019396FD01135B1B4083
S315800011C01359190033E9260133B67401B3060B01AE
S315800011D03306D6009356F601B3849600B3B6D40090
S315800011E0B386C6001396F60193D4140093D61640A0
S315800011F03305EC40832F0400832E4400832344026E
S3158000120093D81840B364960093D7174003260103FA
S31580001210232CD10083264103B38AF840B335AC0032
S31580001220B385BA402320E106232401052320110536
S315800012302324F1072322D107232C7104232A610456
S315800012402328E105232651042322C105232EF104F8
S31580001250EF00C074832F8106032A0402832381054D
S31580001260832E4106B38C4F01032F010503234105CD
S3158000127093960501135D050133867E008322C104A2
S31580001280032E410433EDA601338A4F41B3B6FC01E8
S31580001290B38E7E40B386C600B3BF4F01B38FFE4187
S315800012A093DAF60133036F4093DEFF01333F6F001D
S315800012B0330E5E40B38C9A01330EEE41B3BA5C01B5
S315800012C0338A4E0193D70541B38ADA009355FE01DE
S315800012D0B33EDA01B38EFE019396FA01338365003D
S315800012E093DC1C00B3EC9601B335B3009396FE01F4
S315800012F0135A1A0033EA4601B385C5010326010154
S3158000130083264101135313001395F50193DE1E4086
S315800013103365650093D51540232CD105232EF10026
S31580001320EF00C067939605011355050133E5A600C6
S315800013303303254193DD1D4013DE054133356500BA
S31580001340330EBE41330EAE4083280104232A610446
S315800013502322C105032581028325C10213060C00C1
S3158000136093860800EF008063032881048327C101E8
S31580001370939605011355050133E5A600B3893B41D4
S31580001380B306A501B3BB3B01330B0B4193D5054196
S31580001390330B7B41B3B8A600B385F5008327810163
S315800013A0B388B8009355FB01338C9640B3893501D9
S315800013B0B3B68601B388F840B3B5B900B388D840D0
S315800013C00326010183264101B38565011395F50145
S315800013D093D919003365350193D51540232011051E
S315800013E0EF00C05B330899019396050193DA1A40A2
S315800013F01355050133E5A60033865D01B336280112
S31580001400B386C60013DBF6010323410533080B01BF
S31580001410032E4104832E8105333B6801330BDB00A9
S31580001420330F6A009316FB011358180033E8060140
S315800014303386CE01B3364F0133036A40B386C60086
S31580001440333A6A00B38ECE4133892C4193DBF60161
S31580001450B38E4E41B3BC2C01B38ABA4183280104B2
S3158000146013DAFE01338FEB01B38C9A41B33B7F01D4
S3158000147033036A0093DAFC01B309854193DF0541A2
S31580001480B38BDB00333A430133892A0103270106F4
S315800014908327C10533353501B38F1F419396FB01F1
S315800014A0330ADA01B33A5901135F1F00B38FAF4095
S315800014B033EFE601032501029316FA0183254102E3
S315800014C0B38A9A011353130033E366001359190044
S315800014D09396FA0133E926011306070093860700DF
S315800014E0232811052326F105232401052322E1055E
S315800014F023206104EF00804A03288104832681012A
S31580001500135B1B403387040133369700B38666012D
S315800015103306D600931606011357070133E7E60014
S3158000152093061700032F41041356064133B7E6008E
S31580001530832801053307C7001316F70193D61600D3
S3158000154013571740B3E6C6002322E40093DB1B4003
S315800015503307EC012320D40033368701B386780124
S315800015603306D600931606011357070133E7E600C4
S3158000157093061700032301041356064133B7E6008A
S31580001580832FC1043307C7001316F70193D61600BD
S3158000159013571740B3E6C6002326E400135A1A40B1
S315800015A0338769002324D40033363701B3864F014D
S315800015B0939705013306D6001355050133E5A70039
S315800015C0931606018327C1011357070133E7E60007
S315800015D0330DA5019306170093D505413335AD002C
S315800015E0B385F5001356064133B7E600B3073D4190
S315800015F03307C7003305B5001316F701333DFD00E9
S31580001600135717403305F54193D61600B3E6C60047
S31580001610232AE40093DA1A403307F9003305A541FB
S315800016202328D40033362701B386AA003306D60092
S31580001630931606011357070133E7E6009306170052
S315800016401356064133B7E6003307C7001316F70172
S31580001650B307F94093D61600B3E6C6003339F900CE
S31580001660B38AAA40232CD40013571740B38A2A4141
S31580001670232EE40093D7070113970A01B367F70077
S3158000168013871700B337F700B309334193DA0A415A
S31580001690B387570133333301330AFA419396F701FF
S315800016A0330A6A4093D717402322F40293D909015B
S315800016B093170A01B3E9370193871900B3B9370144
S315800016C013571700135A0A413367D700B389490164
S315800016D0330C8F412320E402333F8F011397F901A6
S315800016E093D71700B38B1B41B3E7E700B38BEB416E
S315800016F02324F402135C0C0193970B0133EC8701CE
S3158000170093071C0033BC870193DB0B41330C7C01B0
S315800017101317FC0193D71700B3E7E7002328F402D9
S3158000172083278101B304984033389800330BFB40FC
S31580001730330B0B4193170B0193D40401B3E4970049
S3158000174093871400B3B49700135B0B41B384640191
S315800017501397F40193D71700B3E7E700232CF4021D
S315800017608327C10393D91940135C1C4093D414403A
S3158000177023263403232A8403232E94021304040489
S31580001780E398879237490080130549A3EF00105DDF
S3158000179093040000374A0080930A8000130B0004EC
S315800017A083278103832BC10013942400338487000D
S315800017B09309000083A50B0013050AA393891900DA
S315800017C0938505082320B400EF005059938B8B0036
S315800017D013044400E39059FF130549A3EF00105802
S315800017E08327C10093848400938707042326F1000E
S315800017F0E39864FB0324814A8320C14A8324414AB7
S315800018008329C149032A8149832A4149032B0149F6
S31580001810832BC148032C8148832C4148032D0148E2
S31580001820832DC147130549A30329014A1301014B9F
S315800018306F00D05263160500130500006780000014
S3158000184013053500135525001307150083A7018955
S3158000185013850189639C07089387018A2320F500F5
S315800018609305F0FF930700409386018A130E2000AC
S31580001870370300049398270023A0B18AB388160102
S3158000188083A8080063861501939717009305E0FFE8
S31580001890938515006384C501E3EE67FC9397270063
S315800018A09395160093D51500B387F600B387B74096
S315800018B0B785FFFF63C40700B7F5FFFFB387B7009F
S315800018C09305000063FEF600B387D74093D72700C1
S315800018D09385F7FFB7070080B3E7F50023A0F18A69
S315800018E093952500B386B60023A006000325050040
S315800018F0B70500809307F0FF1308000093C5F5FF36
S3158000190093162800B306D50083A80600B3F6B80060
S3158000191063900604E3C207F293962700B305D500C9
S3158000192023A0E5006370C702B387E700939727007B
S315800019303307E64037060080B307F5003367C700F4
S3158000194023A0E700938646003305D5006780000014
S3158000195063DE080063ECE60063C407006368D600B4
S3158000196033F6B80093070800E306E6FA3308D80092
S315800019706FF01FF9930705001305000063940500B7
S315800019806780000013F71500630407003305F50030
S3158000199093D51500939717006FF05FFE1307050028
S315800019A09387050013050000930500003368D60071
S315800019B0631408006780000013781600630C080023
S315800019C03308E500B338A800B385F5001305080091
S315800019D0B385B8001398F601135616003366C8000F
S315800019E0939717001358F70193D61600B367F8003C
S315800019F0131717006FF09FFB130101FF232481004B
S31580001A00232611009307A000130405006318F50030
S31580001A10930510001305D000EF00503E1305040017
S31580001A20032481008320C100930510001301010166
S31580001A306F00D03C130101EE232A91102328211137
S31580001A40232E710F232E1110232C81102326311162
S31580001A50232441112322511123206111232C810F2C
S31580001A60232A910F2328A10F2326B10F2320A1001B
S31580001A709384050013090600938B060063180500FE
S31580001A80B7470080938747A42320F10083A601816E
S31580001A9003A74181930700002328D100232AE10070
S31580001AA083A6818403A7C18423220100232CD1002D
S31580001AB0232EE10083A6018803A741882324D1022F
S31580001AC02326E102032A0100130C5002338B47417F
S31580001AD003450A00B3094B0113840900930A1A00CF
S31580001AE0631C850783274100639A070693060002D5
S31580001AF02324D100374F0080B746008013070000AB
S31580001B00130E0000930E000093050000930800005A
S31580001B101306000013030000130C0000130B0000D3
S31580001B2013050000930D900393022002138D46AB9C
S31580001B30930C6001130F8FA59303900093861A0070
S31580001B402320D10083C60A0063E8DD0E63E4D20C4D
S31580001B5013040A006F00101AE302051C930509009E
S31580001B60E7800400138A0A006FF09FF613051000C1
S31580001B70832A01006FF09FFC130610006FF05FFF51
S31580001B802324D1006FF0DFFE130708006FF05FFE9D
S31580001B9093880500930500006FF09FFD138507006D
S31580001BA0930700006FF0DFFC1306000163860E4A80
S31580001BB0938B7B0093FB8BFF83AA0B0003AD4B00BB
S31580001BC0138A8B0063560D4CB3375001330DA041F9
S31580001BD0330DFD40B30A5041930C0000930710006B
S31580001BE06F00401C930C00001306000163840E42B4
S31580001BF0938B7B0093FB8BFF83AA0B0003AD4B007B
S31580001C00138A8B00930700006F00C019930E100093
S31580001C106FF01FF61388D6FD1378F80FE3EA0CF3FE
S31580001C20131828003308E801032808006700080015
S31580001C30130310006FF0DFF3938686FA93F6F60FA0
S31580001C40E3E8D2F093962600B386A60183A6060023
S31580001C5067800600130C10006FF09FF19305090052
S31580001C6013055002E780040013841900138A0B00C1
S31580001C706F00800D93864B006308060003A70B0058
S31580001C80938B06006FF0DFEE03AB0B00938B0600A1
S31580001C90E3500BEE134C1C00330B60416FF05FED8D
S31580001CA0E30006EE93060003832F0100130800006D
S31580001CB0931A2800B38A0A01939A1A00B38ADA0023
S31580001CC083C60F0013880AFD2320F101938A06FD3F
S31580001CD0938F1F00E3FE53FDE31806EA130B0800FB
S31580001CE06FF01FE903A50B0093050900138A4B00CB
S31580001CF0E7800400138419006F000005E39A05E865
S31580001D00930510006FF0DFE6E39A07E8930710006B
S31580001D106FF01FE6138A4B00638C0E0083A70B00BF
S31580001D2023A0370193D9F94123A237016F00C0015F
S31580001D306302050283A70B0023A0370193D9F941DB
S31580001D4023A2370123220100930B0A009307040084
S31580001D506FF05FD76388070083A70B0023A0370146
S31580001D606FF05FFEE31A0EFE6388050083A70B0003
S31580001D70239037016FF01FFDE38008FE83A70B00D9
S31580001D80238037016FF01FFC83AA0B0013331B00DF
S31580001D90138A4B00130D0000930C0000930700007C
S31580001DA0130600012300010413880A0093080D001E
S31580001DB0930B01049356F64113050800938508009A
S31580001DC0232EE102232C6102232AF1022328C10259
S31580001DD02322D1022320010323261101EF10504430
S31580001DE0032801028328C1000326010383264102BA
S31580001DF093850800937DF50F13050800EF10D041F9
S31580001E00930F9000832EC100032F01028326410287
S31580001E100326010383274103032381030327C10389
S31580001E201308050093880500130E010463E6BF2797
S31580001E30938D0D0393FDFD0FA380BB01938B1B0038
S31580001E4063E6DE00E39AD6F7E378CFF6338ECB41AE
S31580001E509305000063020302B3E6AA01638E0600BF
S31580001E6093068000930503006308D600930506FF5A
S31580001E7093B5150093951500638407009385150027
S31580001E80631A0C0003258100930600036314D500B2
S31580001E903307BB40930607006354C70193060E00C1
S31580001EA0B386B600330BDB40B30CC74163120C021A
S31580001EB013040B00634C801E13070B0063540B0046
S31580001EC013070000130BFBFF3384E900330BEB4051
S31580001ED063820702930509001305D0022326610059
S31580001EE02324C100E78004000323C1000326810068
S31580001EF01304140063020302B3EAAA01638E0A0084
S31580001F0093078000631AF61C9305090013050003E6
S31580001F10E78004001304140093890C006F00401FAF
S31580001F20138A4B0083AB0B0063960B00B74B008084
S31580001F30938B0BA5938A0B0063020602930A00001B
S31580001F4063D4EA02B3875B0183C70700638E070009
S31580001F50938A1A006FF0DFFE938A1A0083C70A00FD
S31580001F60E39C07FEB38A7A41330B5B4163180C020C
S31580001F706356600313040B00930CF0FF6F0000019F
S31580001F800325810093050900E78004001304F4FF0C
S31580001F90E31894FF33846901130BF0FFB3895B0167
S31580001FA06F00400103C50B0093050900938B1B004E
S31580001FB0E7800400E3983BFF33045401E3040CD824
S31580001FC0E35460D993090B00930AF0FF6F00000178
S31580001FD00325810093050900E78004009389F9FFB2
S31580001FE0E39859FF330464016FF01FD6930C1000F9
S31580001FF06FF09FBF130E10006FF09FB7930C000019
S31580002000130680006FF09FBE930C00001306A0009D
S315800020106FF0DFBDE31E05BC83AA0B00138A4B005D
S31580002020130D0000E39007BE63060E00130D00003B
S315800020306FF05FD763880500939A0A0193DA0A01E5
S315800020406FF0DFFEE38408FE93FAFA0F6FF01FFE4F
S315800020501306A0006FF09FB5E31C05B483AA0B009E
S31580002060138A4B006386070013DDFA416FF09FB534
S31580002070E31C0EFE63880500939A0A0193DA0A41EF
S315800020806FF09FFEE38208FE93FAFA0F130D0000AD
S31580002090930C00006FF01FB763860C00938D7D0351
S315800020A06FF05FD9938D7D056FF0DFD893050900BA
S315800020B013050002232061022326F1002324C10098
S315800020C0E7800400032301028327C10003268100E1
S315800020D01304F4FF6FF01FDE93070001E31EF6E2A0
S315800020E09305090013050003E780040093050900A2
S315800020F013058007E7800400130424006FF0DFE1F6
S315800021009305090013050003E78004009389F9FF0E
S31580002110E34830FF63D40C00930C0000B38C8C0032
S31580002120B38C9B0103C50B0033847C41631E050081
S3158000213093090B00E3080CC063403003E3540BEAB9
S31580002140130B00006FF01FEA93050900938BFBFFCA
S31580002150E78004006FF01FFD930509001305000258
S31580002160E78004009389F9FF6FF01FFD938B7B0056
S3158000217093FB8BFF03AD0B00138A8B0083AB4B0065
S31580002180130600009306000013050D0093850B00CF
S31580002190EF001038631E0500930509001305000340
S315800021A0E780040013041000338489006FF0DFB9E0
S315800021B0130600009306000013050D0093850B009F
S315800021C0EF00503513040000635E0500B7070080FA
S315800021D0930509001305D002B3CB770113041000D1
S315800021E0E7800400032601018326410113050D00C3
S315800021F093850B00EF0010326352052A9305090080
S3158000220013050003E780040003AB018883AA418895
S3158000221013041400130C0000930C000093050900AE
S315800022201305E002E780040003A7018183A74181AB
S31580002230130414002324A101232671012320E10223
S315800022402322F102130600009306000013050C00FA
S3158000225093850C00EF00D02B6302050203278100D3
S315800022608327C10013060B0093860A001305070017
S3158000227093850700EF00502AE358A0F203A6018455
S3158000228083A6418413050D0093850B00EF10002073
S31580002290032881000327C10003A6018483A6418405
S315800022A0938D0500130D05002328A102938B05004D
S315800022B01305080093050700EF00502E2324A10084
S315800022C02326B10013050D0093850D00EF00D0770E
S315800022D0930D0500130600009306000013050C00FD
S315800022E093850C00EF00D0226312051E63960D1EA7
S315800022F0032681018326C10113050B0093850A00FD
S31580002300EF00D029130B0500938A05009305A000E2
S3158000231013850D00EF10005F930509001305050373
S31580002320E7800400130414006FF0DFF193050700C3
S3158000233013050C00930C070023248101EF00D07055
S31580002340930701069305A000338CB701EF10805BDD
S315800023508328810003A6018483A64184130505038F
S315800023602300AC0093850C0013850800EF00102332
S3158000237003A6018483A641842324B100130C05009F
S3158000238093850A0013050B00EF1040100327810088
S31580002390130B0500938A0500938D1D00032601010A
S315800023A0832641019305070013050C002324E100D1
S315800023B02326B101EF00100D0327810093870D00BE
S315800023C0E35605F663820D021307010693D71D4077
S315800023D01386FDFFB306B701B307F7009386F6FFB2
S315800023E0631AF70C93070600930D0000130C000088
S315800023F0930C00002326F100930701063387B7016B
S315800024000347070093050900938D1D0013050700F8
S315800024102324E100E780040003A6018483A6418487
S3158000242013050C0093850C00EF10400603278100EE
S31580002430930C0500138C0500130507FDEF00D0688B
S3158000244013860C0093060C00EF00C0288327C1007A
S31580002450130C0500938C0500E3DEB7F9130605001F
S315800024609386050013050D0093850B001304140055
S315800024703304F400EF10803F130D0500938B0500A5
S31580002480130605009386050013050B0093850A0045
S31580002490EF009008E354A0D86FF01FD1032B810280
S315800024A0832AC102130C0D0013870B00930D0000C5
S315800024B06FF0DFEE03C5060083450700130717009C
S315800024C0A30FA7FE2380B6006FF05FF1032C0101F6
S315800024D0832C41016FF09FE3032C0102832C410280
S315800024E06FF0DFE20345040093050900130414002E
S315800024F0E780040083270100E366F4FE13040000EE
S3158000250063E447013384474193071000338489008D
S31580002510138A0B002322F1006FF01F838320C111E1
S31580002520032481118324411103290111032A811077
S31580002530832A4110032B0110832BC10F032C810F9B
S31580002540832C410F032D010F832DC10E13850900A6
S315800025508329C1101301011267800000130101FC59
S315800025602322B102B72500802324C1022326D1026B
S3158000257013060000930641029385859F232E110042
S315800025802328E102232AF102232C0103232E11039F
S315800025902326D100EFF00FCA8320C1011301010465
S315800025A067800000030510B09377150063860704E3
S315800025B0030600B0930730016318F6001307100076
S315800025C0A38EE18867800000930710016316F600EA
S315800025D0A38E0188678000009386C18983C7060021
S315800025E0138741893307F7009387170093F777009E
S315800025F02300C7002380F60067800000130101FFD7
S3158000260023248100232291002320210123261100E7
S315800026101304050093840500EFF0DFF81375450079
S315800026206316050083C7D18963820702E39604FE99
S31580002630130510008320C1000324810083244100F8
S31580002640032901001301010167800000230080B087
S315800026506FF05FFE130101FE232821010329450047
S31580002660232A910023263101232E1100232C810059
S3158000267083290500930405006306090413050900F0
S31580002680EF00804D130455FF1306040013850900DF
S3158000269093050900EF00804823A0A40013051000CD
S315800026A08320C101330585400324810123A2B40020
S315800026B003290101832441018329C10013010102F9
S315800026C06780000013850900EF00004913050502A5
S315800026D06FF05FFBB707008093C7F7FF130101FC1C
S315800026E033FFB7001338150023282103232C8101DB
S315800026F0232E1102232C8102232A910223263103C1
S31580002700232441032322510323206103232E7101B5
S3158000271033080F413707F07F93080500138C0500B7
S315800027201303060013890600930E0500130E060098
S31580002730B3F7D7006370E8181307F7FF6318E8004C
S31580002740930FF5FF1307E0FF6366F71713381E0034
S31580002750338807413707F07F930FFEFF6376E838AB
S315800027601307F7FF6316E8001307E0FF636EF7377A
S315800027706366FF00639CE70163FACE01930803005A
S31580002780130C09001303050013890500B707100011
S315800027909387F7FF3377FC0013544C01B377F90026
S315800027A0935449011374F47F232011012322E100FD
S315800027B0232461002326F10093F4F47F6318040038
S315800027C013050100EFF01FE9130405006398040068
S315800027D013058100EFF01FE89304050083270100AD
S315800027E003274100B709008093D6D7011317370016
S315800027F033E7E600B3F98901334C2C0137098000B1
S31580002800032A8100B36BE9000327C100939A37003E
S315800028109357DA011317370033E7E700131A3A00A4
S315800028203369E900330B94406318941423244101DF
S3158000283023262101832481000329C10063520C1AB7
S31580002840B3849A40B3B79A0033892B413309F94050
S315800028502320910023222101B3E7240113060000DF
S315800028609306000063860706B70780006378F9023F
S315800028706300091613050900EF00002E130A85FF71
S3158000288013060A001385040093050900EF0000294A
S315800028902320A1002322B100330444419307E07F23
S315800028A063D88718B706F07F13060000B3E63601B3
S315800028B06F0000023707F07F6366E7016316EF0457
S315800028C063840E04B706080013060500B3E6B60057
S315800028D08320C10303248103832441030329010345
S315800028E08329C102032A8102832A4102032B010222
S315800028F0832BC101032C81011305060093850600F5
S3158000290013010104678000003707F07F6366F700D4
S31580002910639CE700630A0E00B706080013060300EF
S31580002920B3E626016FF0DFFA63940E023707F07F75
S315800029306310EF023349B9006312A31AB707008008
S31580002940631EF91803A6818883A6C1886FF05FF895
S3158000295063160E003707F07FE38CE7F63367AF0028
S315800029606314071AB367FE00E39407F63376A30071
S31580002970B376B9006FF0DFF59307F00363C06705A0
S31580002980130600043306664113050A009305090001
S31580002990EF00C0183365B500B334A00013060B00F2
S315800029A013050A0093050900EF009022B3E4A40002
S315800029B0232491002326B1006FF0DFE71307100070
S315800029C0930700002324E1002326F1006FF09FE6A1
S315800029D013850400EF004018130505026FF01FEA07
S315800029E0B3849A0033872B01B3B75401B387E700CA
S315800029F0370700013377F70063180700232091001B
S31580002A002322F1006FF09FE99396F70113D7140004
S31580002A1033E7E60093F4140093D7170033679700E3
S31580002A202320E1002322F100130414006FF01FE736
S31580002A3063448004032A0100832A41001306F403B9
S31580002A4013050A0093850A00EF00400D3365B50033
S31580002A5013061000B334A0003306864013050A001F
S31580002A6093850A00EF00D016B3E4A40023209100DA
S31580002A702322B100130400000327410083260100AE
S31580002A80131444019317D701131797001357C700E0
S31580002A903367370113F676003364E40093D6360045
S31580002AA013074000B3E7D7006350C70213871700A8
S31580002AB0B336F70093070700338486001386070032
S31580002AC0930604006FF0DFE0E31AE6FE1387170033
S31580002AD0B336F7009377E7FF6FF01FFE1306050006
S31580002AE0938605006FF0DFDE3707F07FE366F7E257
S31580002AF0639AE700E3120EE23707F07F6396E700FA
S31580002B006FF01FDDE30A0EFE3367FE001306050035
S31580002B1093860500E31E07C46FF09FDB937706025A
S31580002B20638C0700130606FEB315C5001307000065
S31580002B301305070067800000E30E06FE9307000278
S31580002B40B387C7403317C500B395C5003355F50025
S31580002B50B365B5006FF0DFFDB706FFFFB376D5002E
S31580002B6093B616009396460093070001B387D74025
S31580002B7037070100B357F500130707F033F7E7006F
S31580002B801337170013173700130680003306E64005
S31580002B90B3D7C7003307D70093F6070F93B616004F
S31580002BA093962600130640003306D640B3D7C70057
S31580002BB013F5C700133515001315150013062000ED
S31580002BC0B386E6003307A640B3D7E70013D71700CE
S31580002BD013471700137717003306F6403307E04094
S31580002BE03377C7003305D5003305A700678000001B
S31580002BF01397150093070500135717003705F07FC5
S31580002C00636EE5066314A700639A0706139716009A
S31580002C10135717003705F07F6362E5066314A70034
S31580002C20631E060433E5B60013151500135515000B
S31580002C303367F6003367A70013050000630E0702AB
S31580002C4033F3B6006342030263C6D5026394B600CB
S31580002C5063E2C7023346F600B3C6B6003366D600D3
S31580002C603335C0006780000063C6B600E394D5FEA6
S31580002C70E372F6FE1305F0FF67800000130510006F
S31580002C8067800000139715009307050013571700F8
S31580002C903705F07F636AE5066314A7006396070627
S31580002CA013971600135717003705F07F636EE504F8
S31580002CB06314A700631A060433E5B60013151500DE
S31580002CC0135515003367F6003367A7001305000018
S31580002CD0630E070233F3B6006342030263C6D5026E
S31580002CE06394B60063E2C7023346F600B3C6B60005
S31580002CF03366D6003335C0006780000063C6B600F1
S31580002D00E394D5FEE372F6FE1305F0FF67800000BC
S31580002D106FF01FEE6FF0DFED6FF0DFF6130101FE4F
S31580002D202328210103294500232A910023263101E6
S31580002D30232E1100232C810083290500930405008E
S31580002D406306090413050900EFF01FE1130455FF1C
S31580002D50130604001385090093050900EFF01FDCB4
S31580002D6023A0A400130510008320C10133058540EC
S31580002D700324810123A2B400032901018324410194
S31580002D808329C100130101026780000013850900B1
S31580002D90EFF09FDC130505026FF05FFB130101FA6C
S31580002DA0B3C7D50023282105370900803379F90078
S31580002DB0B70710009387F7FF2324410513DA4501EF
S31580002DC033F7B700137AFA7FB3F7D700232C810441
S31580002DD023225105232AE10093DA4601232EF100AE
S31580002DE0232E1104232A91042326310523206105ED
S31580002DF0232E7103232C8103232A91032328A103E5
S31580002E002326B1032328A100232CC1001307FAFF30
S31580002E109307D07F1384060013080500130306006A
S31580002E2093FAFA7F63E6E7001387FAFF63FCE73CD1
S31580002E30B707008093C7F7FF33F7B700B706F07F71
S31580002E409308050063E6E600631CD704630A08045A
S31580002E50B707080013070500B3E7B7001305070097
S31580002E60938507008320C1050324810583244105BA
S31580002E70032901058329C104032A8104832A410485
S31580002E80032B0104832BC103032C8103832C410371
S31580002E90032D0103832DC102130101066780000003
S31580002EA0B3F787003708F07F930606006366F8005D
S31580002EB0639C0701630A0300B7070800130706002F
S31580002EC0B3E787006FF09FF9639208023708F07FB7
S31580002ED0631E070163940600638EE702B707F07FDF
S31580002EE013070000B3E727016FF05FF7639C0600C6
S31580002EF0B706F07F6398D700130700009307090091
S31580002F006FF0DFF53367A700B3E7C700631A0700E2
S31580002F10E39407FE03A5818883A5C1886FF09FF49B
S31580002F20E38E07FAB707F07FB3F7B700930B00007D
S31580002F306398070013050101EFF05FDE930B050030
S31580002F40B707F07FB3F78700639807001305810101
S31580002F50EFF0DFDCB38BAB40032BC101832981010A
S31580002F60832C4101B7071000330A5A41336BFB00AB
S31580002F70B3ECFC00330A7A019317BB0093DB59014B
S31580002F8037F40475B3EB7701130434333304744197
S31580002F9013860B00930600001305040093050000BA
S31580002FA0EFE0DF9F13060400930600003305B04070
S31580002FB093050000EFE09F9E939515001354F5014D
S31580002FC033E4850013860B00930600001305040086
S31580002FD093050000EFE09F9C130604009306000013
S31580002FE03305B04093050000EFE05F9B9395150095
S31580002FF01356F50133E6C5009306000013850B00D2
S31580003000930500002326C100EFE05F990326C100E7
S31580003010930600003305B04093050000EFE01F984B
S3158000302093951500935AF501B3EA5501938AFAFFF1
S3158000303013860A00930600001395B90093050000D5
S31580003040EFE0DF951384050013860B0093060000DE
S3158000305013850A0093050000EFE05F943305A40012
S31580003060333485003304B400B337A00013860A00D6
S3158000307093060000330480403305A040930500008A
S315800030803304F440EFE09F91938B050013860A008A
S31580003090930600001305040093050000EFE01F90DF
S315800030A083240101930DE5FF33B5AD009385F5FFCC
S315800030B0B38DBB013305B500B3BA7D0193D7E40167
S315800030C0939C2C00B38AAA00B3EC970193972400B3
S315800030D013860A00138507009306000093050000F7
S315800030E02326F100EFE09F8B138C0500130D05005E
S315800030F013860C009306000013850D0093050000CF
S31580003100EFE0DF898327C10013040500938B050058
S315800031101385070013860D009306000093050000B3
S31580003120EFE0DF873385A50133048500B335B5002D
S315800031303334A4003304B40013850A0013860C00CC
S315800031409306000093050000B38B8B01EFE01F858B
S3158000315033BC8B013385AB00B33B7501330CBC00AC
S31580003160B30AA400B38B8B0133B48A003304740191
S31580003170B7072000637CF40813860A0093060400D0
S315800031801385090093050B00EFE05F81939454014A
S31580003190B337A000B384B4403305A040B384F44071
S315800031A0130AFAFF130AFA3F9307E07FE3C847D36F
S315800031B0E35440D59357F5011314C4009394140037
S315800031C01354C400131A4A01B3E49700336A8A0081
S315800031D0131515009307100063689B0063946401C0
S315800031E063E4A90093070000B38A5701B3B7FA00D6
S315800031F0B387470133E7270113850A009305070044
S315800032006FF05FC6930B00006FF01FD59317F40124
S3158000321093DA1A00B3EA57011354140013860A008E
S31580003220930604001385090093050B00EFE00FF762
S3158000323093944401B337A000B384B4403305A040CF
S31580003240B384F4406FF01FF6130101FF232481003D
S31580003250232611001304100063D405001304F0FF25
S31580003260B707100013D745011386F7FF1377F77F4B
S315800032703376B600B3E5C700930617C093073003CD
S3158000328063EAD702130640033306D640EF004014A4
S315800032909305050013050400EFE0CFED93070500C5
S315800032A08320C100032481001385070013010101D7
S315800032B06780000093070000E3C406FE1306D7BCB0
S315800032C0EFF0DF856FF0DFFC63040508130101FF73
S315800032D0232481002320210123261100232291000B
S315800032E01304050013090000635605003304A0404B
S315800032F03709008013050400EFF01F86930405004C
S31580003300130655019355F44113050400EFF01F8110
S31580003310B7071000B3C7B7009305E041B385954062
S315800033208320C1000324810093954501B385F50070
S31580003330B3E7250113070500832441000329010013
S3158000334013050700938507001301010167800000BC
S3158000335013050000930500006780000063040506DE
S31580003360130101FF232611002324810023229100CB
S3158000337093040500EFF04FFE130405001306550174
S315800033809305000013850400EFF04FF9B70710008E
S31580003390B3C5B7009307E0418320C100B387874058
S315800033A00324810093974701930605003387B7006E
S315800033B0832441001385060093050700130101014C
S315800033C067800000130500009305000067800000F9
S315800033D093770602638C0700130606FE33D5C50075
S315800033E0130700009305070067800000E30E06FEC2
S315800033F093070002B387C74033D7C5003355C5004E
S31580003400B395F50033E5A5006FF0DFFD130101FEEE
S315800034102328210103294500232A910023263101EF
S31580003420232E1100232C8100832905009304050097
S315800034306306090413050900EFF00FF2130455FF24
S31580003440130604001385090093050900EFF00FEDBC
S3158000345023A0A400130510008320C10133058540F5
S315800034600324810123A2B40003290101832441019D
S315800034708329C100130101026780000013850900BA
S31580003480EFF08FED130505026FF05FFB130101FA74
S31580003490B3C7D50023244105370A0080337AFA0062
S315800034A0B70710009387F7FF2328210513D9450115
S315800034B033F7B7001379F97FB3F7D700232C81044C
S315800034C023225105232AE10093DA4601232EF100B7
S315800034D0232E1104232A91042326310523206105F6
S315800034E0232E7103232C8103232A91032328A103EE
S315800034F02326B1032328A100232CC1001307F9FF3B
S315800035009307D07F13840600130805001303060073
S3158000351093FAFA7F63E6E7001387FAFF63F8E722F8
S31580003520B707008093C7F7FF33F7B700B706F07F7A
S315800035309308050063E6E600631CD704630A080463
S31580003540B707080013070500B3E7B70013050700A0
S31580003550938507008320C1050324810583244105C3
S31580003560032901058329C104032A8104832A41048E
S31580003570032B0104832BC103032C8103832C41037A
S31580003580032D0103832DC10213010106678000000C
S31580003590B3F78700B706F07F1308060063E6F600E8
S315800035A0639CD700630A0300B70708001307060069
S315800035B0B3E787006FF09FF963920802B706F07F42
S315800035C0631ED700B3E7C700638C07289306000005
S315800035D0B3674701138506006FF09FF73367A7002F
S315800035E063120802B706F07F639ED700630A072638
S315800035F09306000033E7470113850600930507000D
S315800036006FF05FF5631807001307000093070A0041
S315800036106FF0DFF3B3E7C700E38807FEB707F07FF5
S31580003620B3F7B700130D0000639807001305010177
S31580003630EFF0DFDD130D0500B707F07FB3F78700E6
S315800036406398070013058101EFF05FDC330DAD0051
S31580003650032481018324C101032601019357540168
S315800036601314B40093060000130504009394B40069
S3158000367093050000B3E497002326C100EFE00FB264
S315800036800326C100B70D0080B3ED9D009389050028
S31580003690130C05009306000013850D0093050000AA
S315800036A0EFE0CFAF03264101B70C1000130B0500E6
S315800036B033E6CC00938405009306000013050400CE
S315800036C0930500002326C100EFE04FAD0326C1001D
S315800036D033043501938B05009306000013850D0096
S315800036E093050000EFE08FAB330B6401B3393401EF
S315800036F0B307750133348B00B384970033043401E8
S3158000370033B5A7003305B500B3B7F400338484001E
S31580003710B387A700B3349400B384F4003306590109
S31580003720B3FC9C0093090C003306A60163840C024B
S31580003730130626C09307E07F63D6C704B707F07FDA
S3158000374013070000B3E747016FF05FE0130D000039
S315800037506FF01FF09357F401939414001357FB01F5
S3158000376013141400B3E49700131B1B009357FC013A
S31580003770130616C03364E40093191C0033EB67010B
S315800037806FF05FFB6346C00A930A1000B38ACA4093
S315800037909307F003E3CA57E71309F60313060900F4
S315800037A01305040093850400EFF04FB7130C050052
S315800037B0938B050013860A001385090093050B0079
S315800037C0EFF01FC1336CAC00B3EBBB0013060900EE
S315800037D01385090093050B00EFF04FB4B369B5006C
S315800037E013860A001305040093850400B33930015B
S315800037F0EFF01FBEB3693C01138B0B001304050069
S315800038003707008093070400336ABA00636667014E
S31580003810631AEB02638A09029307140033B48700A4
S31580003820330A44019386070013070A006FF0DFDC32
S315800038309395C40093D5C50013164601B3E5C5001C
S315800038406FF01FFCE39009FE37070080E31CEBFC5A
S315800038509307140033B4870093F7E7FF6FF05FFC9C
S3158000386003A5818883A5C1886FF0DFCEB707008066
S3158000387013070600B3C7D700130607009386070011
S315800038806FE05FE5937716001307050063860700F0
S3158000389063C00506634A07049307100063F2E502D6
S315800038A06346B0006F00C0016358B0009395150061
S315800038B093971700E3EAE5FE13050000638007028D
S315800038C0130500006366B7003307B7403365F5001C
S315800038D093D7170093D51500E39607FE1376260037
S315800038E0631E0600678000003307E0406FF0DFFA52
S315800038F0B305B040E35207FA6FF01FFF13050700C8
S3158000390067800000130630006FF0DFF7B368D600DB
S31580003910937E1700333E1001130F000063880E025A
S3158000392063D80604B337C000B306D040B386F640EA
S315800039303306C04063DC0500B337A000B305B04052
S31580003940B385F5403305A04093CE1E0063E6B600EE
S31580003950639AD5006378A6006340D002639406001C
S31580003960631C060013080000930700006F008007A1
S31580003970930E00006FF01FFC9357F6019396160086
S31580003980B3E6D70013181F009357FE0113161600CF
S3158000399033EF0701131E1E006FF05FFB63E4D50251
S315800039A06394B6006360C502B308C540333315011E
S315800039B0B385D54013850800B38565403368C80153
S315800039C0B3E7E7011313FF0193581E00336E13010B
S315800039D0135616009398F601135F1F0033E6C8004E
S315800039E093D61600B368EE01E39A08FA1377270098
S315800039F063120702638C0E00B3350001B307F040F3
S31580003A0033050041B385B740678000001305080081
S31580003A109385070067800000130700006FF01FEF93
S30D80003A20130720006FF09FEEF2
S31580003A28554E555452410A00092564000A00000083
S31580003A3859657300596573256400000028666D749E
S31580003A48206E756C6C290A00286E756C6C290000CE
S31580003A58301C0080501B00805C1C0080501B00803E
S31580003A68501B0080501B0080501B0080741C0080F7
S31580003A78701B0080501B0080541C0080781B0080BF
S31580003A88501B0080A01C0080A81C0080A81C0080F9
S31580003A98A81C0080A81C0080A81C0080A81C008088
S31580003AA8A81C0080A81C0080A81C0080EC1F008031
S31580003AB8501B0080501B0080501B0080501B0080CC
S31580003AC8501B0080501B0080501B0080501B0080BC
S31580003AD8501B0080501B0080E41C00805020008012
S31580003AE8501B00806C210080501B0080FC1C0080CD
S31580003AF8502000800C1C0080501B0080081D008010
S31580003B08501B0080141D0080FC1F0080881D0080CB
S31580003B186C1B0080501B0080201F0080501B00807B
S31580003B2808200080501B0080501B0080E41B00800A
S30D80003B38A81B0080F41F008029
S31580003B40EA2E4454FB211940000000000000E03FAB
S31580003B50000000000000F03F000000000000384038
S31580003B6000000000008086400000000000B0E340B6
S31580003B700000000080AF4B4100000000FC8CBC417F
S31580003B8000000000000024400000000000005940B2
S31580003B909A9999999999B93F7B14AE47E17A843F6E
S31580003BA000000000000000400000000000001040FF
S31580003BB0EA2E4454FB210940000000000000B03F7B
S31580003BC0956479E17FFDA53D000000000000F87F47
S705800000007A
