S00C0000646872792E7372656361
S315800000009721000093818137974400009384843D33
S3158000001017240000130484B66F00C0002300040078
S3158000002013041400E31C94FE17240000130404B583
S3158000003097240000938484B4138900006F00000124
S315800000400325040013044400E7000500E31A94FE28
S30D80000050930009006F004000D7
S31580000058130101F613050003232E1108232C8108AA
S31580000068232A910823282109232631092324410993
S315800000782322510923206109232E7107232C810706
S31580000088232A91072328A1072326B107EF00D01D2D
S315800000981384418193070500130500032320F40088
S315800000A823248100EF00501C938781810327040055
S315800000B823A0A7002320F100930720002324F5001E
S315800000C8930780022326F500B71700802320E500D2
S315800000D89385077B232205001306F0011305050186
S315800000E8EF00901AB72700809387479D03D7C701EB
S315800000F803A3070083A8470003A8870003A5C700B2
S3158000010883A5070103A6470183A6870183C7E7015D
S31580000118231EE10237270080378E0100230FF10264
S31580000128130707C79307A00013040E6A23206102EA
S3158000013823221103232401032326A1022328B102A3
S31580000148232AC102232CD102232EF7643789010082
S315800001589304F0FF13050000EF00D01A630A950098
S31580000168130500001304F969EF00D019E31A95FE08
S315800001781304F4FFE31004FE371500801305057D8C
S31580000188EF10404C9305200313850183EF00503B05
S3158000019813850183EF005023130D0500F32710C044
S315800001A837270080130787B72326E1002320F70027
S315800001B8635AA046B72700809389479FB727008050
S315800001C8138A47A1938741802322F100938A9180DD
S315800001D8130B1000130C0104930B0102938C0181FD
S315800001E8EF008063EF00C0608357CA01832E0A0040
S315800001F8032E4A0003238A008328CA0003280A019B
S3158000020883268A0103264A010347EA0193050C00DF
S31580000218231EF10413850B00930710002320D105B4
S315800002282322C105232461042326110523280105D9
S31580000238232CD104232AC104230FE104232EF100A1
S31580000248EF00406F0327410093371500130681019D
S315800002582320F700930530009307700013052000CC
S31580000268232CF100EF00C06183268101B727008027
S31580000278938507C7130630009307300013850183DB
S31580000288232AF100EF0040618327010003A50700B8
S31580000298EF00004083C70A00130700046376F73629
S315800002A81304100413093000130504009305300461
S315800002B8EF0040668327C1019304140013F4F40FFA
S315800002C8630AF52C83C70A00E3F087FE93171900A3
S315800002D8338427018324810113050400130B1B0033
S315800002E893850400EF00901C13090500130541014E
S315800002F8232A2101EF00C034E3546DEFB3079440FD
S3158000030813973700B307F740B3892741F32710C0FF
S315800003180327410083A50C003715008003260700B4
S315800003281384C1801305457E2320F400EF108031A5
S3158000033883C5818003C60A00371500801305857F2B
S31580000348EF1040303727008093870183130707C74C
S315800003580326C76583A50702372500801305C58050
S31580000368EF10402E83270100B714008037250080C0
S3158000037883A707001388047B1305458303A7C70053
S3158000038883A6870003A6470083A5070093870701EE
S31580000398EF10402B83278100372500801388047B44
S315800003A883A707001305858703A7C70083A6870049
S315800003B803A6470083A5070093870701EF108028C7
S315800003C88325410137250080138609001305858C0E
S315800003D8EF1040270326C101832581013725008038
S315800003E81305058EEF1000263725008013060C00AE
S315800003F893850B001305858FEF10C0248327C100D2
S315800004088326040003A607003387C6406342072075
S315800004189384C18123A0E40013040700378901006F
S315800004289305096A13050400EF0090101307050069
S3158000043837250080930600001306400693050400BE
S3158000044813058594EF10002093175D0003A504001B
S31580000458B387A74193972700B387A7019305096AAE
S3158000046813993700EF00D00C930505001305090092
S31580000478EF00100C93175500B387A7409397270072
S31580000488130405003385A7009305D06D1315350031
S31580000498EF00100A9305803EEF00100A93090500C5
S315800004A89305D06D13050400EF0090081306050028
S315800004B83725008093860900930504001305C596A1
S315800004C8EF1040189305D06D13050900EF00007EE4
S315800004D813175500930705003307A74003A50400A3
S315800004E813172700B307F7009305803E1394370048
S315800004F8EF00C07B9305050013050400EF00007B21
S315800005089305803E13040500EF00100313060500CB
S315800005189305803E1305040013040600EF0050017E
S315800005289305050037250080130604001305C59832
S31580000538EF104011F32530C0732440C03725008062
S315800005481305059AEF1000103725008093050400DF
S315800005581305859BEF10000F8320C10903248109A9
S3158000056883244109032901098329C108032A8108AB
S31580000578832A4108032B0108832BC107032C810793
S31580000588832C4107032D0107832DC1061301010A18
S31580000598678000009305C10113050000EF00C0289D
S315800005A883AE090003AE490003A3890083A8C90066
S315800005B803A8090103A5490183A5890183D7C90130
S315800005C803C6E90183C60A002320D1052322C10573
S315800005D8232461042326110523280105232AA1043F
S315800005E8232CB104231EF104230FC10423A06C011C
S315800005F813F4F40F63E6860013090B006FF0DFCA65
S3158000060813090B006FF09FCC130490006FF09FCCFA
S315800006189384C181B307D64023A0F40013840700CE
S315800006286FF0DFDF938741802322F100938A9180E0
S31580000638130C0104930B0102938C01816FF01FCD7B
S3158000064883C68180130710046384E60067800000F0
S315800006588326050003A70181938696003387E640A3
S315800006682320E500678000009387818103A6070021
S3158000067863080600832606002320D50003A6070004
S3158000068883A501811306C6001305A0006F00401FCD
S31580000698130101FF23202101138981818327090002
S315800006A8232481000324050003A7070083AE47009F
S315800006B803AE870003A3070183A8470103A8870120
S315800006C883A5070203A6470283A6870223229100F1
S315800006D8232611009304050003A5C70183A7C70233
S315800006E82320E40003A70400232EA4002326F40273
S315800006F82322D401930750002324C40123286400AD
S31580000708232A1401232C04012320B4022322C402A1
S315800007182324D40223A6F4002326F4002320E4000D
S3158000072813050400EFF05FF483274400638007080D
S3158000073883A704008320C1000324810083AF0700B8
S3158000074803AF470083AE870003AEC70003A3070144
S3158000075883A8470103A8870183A5C70103A60702C3
S3158000076883A6470203A7870283A7C70223A0F401AB
S3158000077823A2E40123A4D40123A6C40123A86400E8
S3158000078823AA140123AC040123AEB40023A0C40217
S3158000079823A2D40223A4E40223A6F4020329010097
S315800007A883244100130101016780000003A58400AA
S315800007B8930760002326F40093058400EF00C006A3
S315800007C8832709000325C4001306C40083A70700EE
S315800007D88320C100832441002320F4000324810060
S315800007E8032901009305A000130101016F00400948
S315800007F803C781809387418083A607001307F7FB89
S31580000808133717003367D70023A0E70013072004A0
S31580000818A384E18067800000130710042384E180A5
S3158000082823A2018067800000130720006304E50483
S315800008389307300023A0F500930710006302F502A2
S3158000084863FAA70093074000631AF50023A0E50022
S315800008586780000023A0050067800000678000008D
S3158000086803A7018193074006E3D4E7FE23A005008A
S31580000878678000009307100023A0F50067800000BA
S315800008889307050093872700B387B7002320F600D0
S3158000089813050700678000009307560013070600B4
S315800008A8139617003306F600131636003306F6003D
S315800008B8131827001393270013163600130705000D
S315800008C8330567003307C8002320D500232CF50697
S315800008D82322D5003387E50083260701232AF700DC
S315800008E8232CF700938716002328F7000327050093
S315800008F8B3870501B387C700B7160000B387F6002C
S3158000090823AAE7FA1307500023A8E1801385080075
S31580000918678000009377F50F13F7F50F6386E70076
S315800009281305000067800000130510002384F180FA
S31580000938678000008346250083C7350013070500B6
S315800009486384F608B367B50013F5370063120508A4
S315800009588327070083A605003706FFFE1306F6EFF2
S31580000968B388C700639CD708B78680801388060833
S315800009786F0000048327470083A645001307870076
S315800009889385850013C3F7FFB388C7006398D70696
S31580000998B3F7080163860700B377F3006394070209
S315800009A88327070083A60500B388C7006398D70402
S315800009B8B3F60801E38006FC93C7F7FFB3F7D700C1
S315800009C8E38A07FA678000006F000000639CD700FF
S315800009D883470700130717009385150083C6F5FF1D
S315800009E8E39607FEB387D740635CF0061307A0003B
S315800009F81305100023A8E1806780000013F7F70F1E
S31580000A0813F6F60F630A07046318C704370701004D
S31580000A18130707F033F6E700B3F5E600630A060224
S31580000A286318B60213D6074193D706419376F60F15
S31580000A3893F5F70F638A06003376E600B3F7E70087
S31580000A48B307F640E382B6FAB387B6406FF0DFF9AC
S31580000A58B307B6406FF05FF9B307C7406FF0DFF8AA
S31580000A6813050000678000009387018203A50700AD
S31580000A781347050323A0E700B74700809387073805
S31580000A883385A70067800000930700006394C7003A
S31580000A98678000003387F500834607003307F50033
S31580000AA8938717002300D7006FF05FFE030510B009
S31580000AB89377150063860704030600B09307300111
S31580000AC86318F600130710002387E1826780000009
S31580000AD8930710016316F60023870182678000005A
S31580000AE89386C18283C70600138741823307F7003E
S31580000AF89387170093F777002300C7002380F600B3
S31580000B0867800000130101FF2324810023229100BE
S31580000B18232021012326110013040500EFF01FF975
S31580000B2803C7C18283C7D1829386D182630C0402AC
S31580000B38E306F7FE138741823307F700034507006C
S31580000B489387170093F777002380F6008320C100E8
S31580000B580324810083244100032901001301010134
S31580000B6867800000E318F7FC1305F0FF6FF01FFE9F
S31580000B78130101FF232481002322910023202101D0
S31580000B88232611001304050093840500EFF01FF255
S31580000B98137545006316050083C7E18263820702E1
S31580000BA8E39604FE130510008320C1000324810008
S31580000BB88324410003290100130101016780000095
S31580000BC8230080B06FF05FFE130101FF232611001A
S31580000BD8834605001307D002930705009305100086
S31580000BE86396E600930715009305F0FF130500004A
S31580000BF8130690006F008001131725003307A7009E
S31580000C08131717003385E6009387170083C60700F6
S31580000C18938606FD13F7F60FE370E6FEEF00C02114
S31580000C288320C100130101016780000093771600B5
S31580000C38130705006386070063C00506634A070431
S31580000C489307100063F2E5026346B0006F00C001A7
S31580000C586358B0009395150093971700E3EAE5FE6D
S31580000C681305000063800702130500006366B7005A
S31580000C783307B7403365F50093D7170093D515002A
S31580000C88E39607FE13762600631E0600678000003B
S31580000C983307E0406FF0DFFAB305B040E35207FA56
S31580000CA86FF01FFF13050700678000006344050681
S31580000CB89306000063C4050463F8A50463860504E7
S31580000CC8930710009395150093971700E3ECA5FEFC
S31580000CD8638C0704130700006366B5003305B540C7
S31580000CE83367F70093D7170093D51500E39607FE69
S31580000CF8639806021305070067800000B305B040B5
S31580000D0893C61600E3EEA5FA9307100013070000B2
S31580000D186FF09FFC3305A040930610006FF09FF993
S31580000D283305E04067800000130700006FF05FFC22
S31580000D38130600006FF09FEF130620006FF01FEF79
S31580000D48130101FC232A9102232821039384F5FFAA
S31580000D5837290080232C810223263103232441034B
S31580000D682322510323206103232E7101232E11028E
S31580000D7893090500B304950013040500130AD000EF
S31580000D88B72A0080372B0080930BF007130949A4F4
S31580000D9813051000EFF01FD79375F507634EBA0455
S31580000DA8636EBA0493972500B387270183A7070044
S31580000DB8678007009304F0FF37250080130545A355
S31580000DC8EF005008230004008320C1030324810315
S31580000DD8032901038329C102032A8102832A410246
S31580000DE8032B0102832BC10113850400832441034D
S31580000DF8130101046780000063867503E37A94F81B
S31580000E0813850AA42326B100EF00D0038325C100E9
S31580000E1813041400A30FB4FE6FF09FF79304000029
S31580000E286FF09FF9E3F689F613058BA3EF0090011F
S31580000E381304F4FF6FF0DFF5930705001305000030
S31580000E48639405006780000013F7150063040700A4
S31580000E583305F50093D51500939717006FF05FFE5D
S31580000E68130101FF23248100232611009307A00084
S31580000E78130405006318F500930510001305D000C8
S31580000E88EFF01FCF13050400032481008320C100DF
S31580000E9893051000130101016FF09FCD130101F72F
S31580000EA8232E3107232C4107232A5107232861073C
S31580000EB82326110823248108232291082320210927
S31580000EC82326710723248107232291072320A1073C
S31580000ED8232EB105138A0500930A06009389060016
S31580000EE8130B050063160500372B0080130BCBA761
S31580000EF8372700801307C7AE2324E10037270080F1
S31580000F08130707A993070000930C00002326E10026
S31580000F1813040B00B384674103450400338D8400B2
S31580000F289307500213090D00130C14006312F5067B
S31580000F3863920C069307000293080000130E0000C4
S31580000F48130F00009305000013030000130600002A
S31580000F58930E00002320010093040000130500006F
S31580000F68130700002322F100930D900393022002B9
S31580000F7893036001930B900083460C00130B1C00AF
S31580000F8863EADD0E63E4D20C930404006F00806587
S31580000F98630A056693850A00E7000A0013040C00B5
S31580000FA86FF09FF713051000130C0B006FF0DFFC32
S31580000FB8130610006FF05FFF2322D1006FF0DFFE6B
S31580000FC8930808006FF05FFE138305009305000001
S31580000FD86FF09FFD13050700130700006FF0DFFC15
S31580000FE813060001630C0F4C9389790093F989FFE6
S31580000FF803A40900938B890083A9490063DC094E01
S3158000100833378000B3093041B389E94033048040DF
S3158000101813080000130710006F00801D13080000D6
S3158000102813060001630A0F449389790093F989FFAF
S3158000103803A40900938B890083A94900130700003C
S315800010486F00001B130F10006FF01FF61388D6FD74
S315800010581378F80FE3EA03F38327C10013182800EF
S315800010683308F8000328080067000800930E10006C
S315800010786FF09FF3938686FA93F6F60FE3E6D2F03F
S315800010888327810093962600B386F60083A60600FA
S3158000109867800600930710002320F1006FF0DFF0C9
S315800010A893850A0013055002E7000A0013091D00FC
S315800010B8938B09006F00000E93864900630806002B
S315800010C883A80900938906006FF01FEE83A40900A0
S315800010D893890600E3DA04EC83270100B304904081
S315800010E893C717002320F1006FF01FECE30606EC88
S315800010F89306000313080000930F0B00131B2800A8
S31580001108330B0B01131B1B00330BDB0083C60F004D
S3158000111813080BFD138B0F00138C06FD938F1F008E
S31580001128E3FE8BFDE31E06E8930408006FF0DFE715
S3158000113803A5090093850A00938B4900E7000A00F6
S3158000114813091D006F000005E39005E8930510005C
S315800011586FF09FE5E31007E8130710006FF0DFE4F0
S31580001168938B4900630C0F0003A709009357FD4131
S315800011782320A7012322F7006F00C001630205021E
S3158000118803A709009357FD412320A7012322F700CF
S31580001198930C000093890B00930709006FF05FD7C3
S315800011A86308070003A709002320A7016FF05FFEE5
S315800011B8E31A0EFE6388050003A709002310A7011A
S315800011C86FF01FFDE30003FE03A709002300A701B4
S315800011D86FF01FFC03A40900938B490093BE14008B
S315800011E89309000013080000130700001306000186
S315800011F82308010213030400138E0900130C01034C
S315800012089356F6411305030093050E002326010322
S31580001218232411032322D1032320E102232EC10094
S31580001228232CD100232A61002328C101EF004057CF
S3158000123803234101032E01010326C101832681016F
S3158000124893050E00937DF50F13050300EF00C05438
S3158000125893039000832F0101832241018326810114
S315800012680326C10103270102832E410283288102B6
S315800012780328C10213030500138E0500130F01030B
S3158000128863EEB327938D0D0393FDFD0FA300BC0179
S31580001298130C1C0063E6DF00E396F6F7E3F4C2F668
S315800012A8330FEC419306000063820E02B365340166
S315800012B8638E05009305800093860E006308B6004A
S315800012C8930606FF93B616009396160063040700E6
S315800012D89386160083270100639A070083274100B7
S315800012E8930500036394B700B388D44093850800B8
S315800012F863D4E80193050F0083270100B385D500E1
S31580001308B384B440B38DE84163920702138904001D
S31580001318634020219386040063D40400930600006A
S315800013289384F4FF3309DD00B384D4406302070253
S3158000133893850A001305D0022328D1012322C100F0
S31580001348E7000A00832E01010326410013091900CC
S3158000135863820E0233643401630E040093078000AF
S31580001368631EF61C93850A0013050003E7000A002E
S315800013781309190013840D006F00C01F938B490051
S3158000138883A9090063960900B7270080938987A8EF
S3158000139813840900630206021304000063541403CD
S315800013A83387890003470700630E07001304140078
S315800013B86FF0DFFE1304140003470400E31C07FEE6
S315800013C83304344183270100B38484406398070239
S315800013D86356900213890400130CF0FF6F00000116
S315800013E80325410093850A00E7000A001309F9FFDF
S315800013F8E31889FF33099D009304F0FF338C890035
S315800014086F00400103C5090093850A009389190076
S31580001418E7000A00E39889FF8327010033098900DA
S31580001428E38807D6E35890D6138404009309F0FF1F
S315800014386F0000010325410093850A00E7000A0032
S315800014481304F4FFE31834FF330999006FF09FD42F
S31580001458130810006FF0DFBC130E10006FF0DFB4B6
S3158000146813080000130680006FF0DFBB1308000026
S315800014781306A0006FF01FBBE31805BA03A4090082
S31580001488938B490093090000E31A07BA63060E0096
S31580001498930900006FF0DFD56388050013140401F3
S315800014A8135404016FF0DFFEE30403FE1374F40F94
S315800014B86FF01FFE1306A0006FF0DFB2E31605B2C9
S315800014C803A40900938B4900630607009359F441E6
S315800014D86FF0DFB2E31C0EFE638805001314040167
S315800014E8135404416FF09FFEE30203FE1374F40F56
S315800014F893090000130800006FF05FB463060800C4
S31580001508938D7D036FF05FD8938D7D056FF0DFD760
S3158000151893850A0013050002232AD1012328E100B6
S315800015282322C100E7000A00832E41010327010117
S31580001538032641001309F9FF6FF09FDD9307000129
S31580001548E31AF6E293850A0013050003E7000A000A
S3158000155893850A0013058007E7000A001309290006
S315800015686FF05FE193850A0013050003E7000A0020
S315800015781304F4FFE34880FE63D40D00930D000046
S31580001588B38D2D01B30DBC0103450C0033898D4104
S31580001598631005028327010013840400E38A07BECB
S315800015A863408002E3D204EA930400006FF0DFE927
S315800015B893850A00130CFCFFE7000A006FF0DFFC36
S315800015C893850A0013050002E7000A001304F4FF56
S315800015D86FF01FFD03C5040093850A0093841400E9
S315800015E8E7000A00E3E864FF1309000063648B00E0
S315800015F833098B4033092D01938B0900930C100016
S315800016086FF05FB98320C1080324810883244108C9
S31580001618032901088329C107032A8107832A4107E9
S31580001628032B0107832BC106032C8106832C4106D5
S31580001638832DC10513050D00032D0106130101092C
S3158000164867800000130101FC2322B102B7150080D0
S315800016582324C1022326D1021306000093064102E1
S31580001668938585E6232E11002328E102232AF10299
S31580001678232C0103232E11032326D100EFF01F828A
S315800016888320C1011301010467800000B368D60076
S31580001698937E1700333E1001130F000063880E02F5
S315800016A863D80604B337C000B306D040B386F64085
S315800016B83306C04063DC0500B337A000B305B040ED
S315800016C8B385F5403305A04093CE1E0063E6B60089
S315800016D8639AD5006378A6006340D00263940600B7
S315800016E8631C060013080000930700006F0080073C
S315800016F8930E00006FF01FFC9357F6019396160021
S31580001708B3E6D70013181F009357FE011316160069
S3158000171833EF0701131E1E006FF05FFB63E4D502EB
S315800017286394B6006360C502B308C54033331501B8
S31580001738B385D54013850800B38565403368C801ED
S31580001748B3E7E7011313FF0193581E00336E1301A5
S31580001758135616009398F601135F1F0033E6C800E8
S3158000176893D61600B368EE01E39A08FA1377270032
S3158000177863120702638C0E00B3350001B307F0408D
S3158000178833050041B385B74067800000130508001C
S315800017989385070067800000130700006FF01FEF2E
S30D800017A8130720006FF09FEE8D
S315800017B04448525953544F4E452050524F475241F8
S315800017C04D2C20534F4D4520535452494E470000CF
S315800017D00A4E756D626572206F662072756E733AF9
S315800017E02000000031092564202835290A32092580
S315800017F064202831290A00003309256320284129DD
S315800018000A34092563202842290A000035092564FF
S31580001810202837290A3609256420284E756D626589
S31580001820725F4F665F52756E73202B203130290AA6
S3158000183000000000372E610925642028696D706CD0
S315800018402D646570290A372E62092564202830297F
S315800018500A372E63092564202832290A372E64091F
S31580001860256420283137290A372E650925732028D3
S315800018702573290A00000000382E61092564202876
S31580001880696D706C2D646570292C2073616D65207F
S3158000189061732061626F76650A382E62092564203D
S315800018A02830290A382E63092564202831290A38E8
S315800018B02E6409256420283138290A382E650925A1
S315800018C07320282573290A0039092564202835299B
S315800018D00A313009256420283133290A00000000A6
S315800018E03131092564202837290A313209256420B7
S315800018F02831290A00000000313309257320284445
S3158000190048525953544F4E452050524F4752414D9D
S315800019102C203127535420535452494E47290A319B
S315800019203409257320284448525953544F4E452034
S3158000193050524F4752414D2C2032274E442053540B
S3158000194052494E47290A00000A7469636B733A0943
S3158000195009256420402025642E25303364204D4897
S315800019607A0A6D733A090925640A00004468727917
S315800019702F733A090925640A444D4950533A090997
S3158000198025642E253033640A00000000444D4950FA
S31580001990532F4D487A3A0925642E253033640A0040
S315800019A04272616E63686573204578656375746598
S315800019B0643A2025640A00004272616E636865732A
S315800019C0204D69737072656469637465643A202515
S315800019D0640A00004448525953544F4E4520505291
S315800019E04F4752414D2C203127535420535452494E
S315800019F04E4700004448525953544F4E452050524A
S31580001A004F4752414D2C203327524420535452493C
S31580001A104E4700004448525953544F4E4520505229
S31580001A204F4752414D2C2032274E44205354524921
S31580001A304E4700000A0000002563200800000000D1
S31580001A4025630000980D0080040E0080040E00803F
S31580001A50BC0D0080040E0080040E0080040E008001
S31580001A60040E00802C0E0080040E0080240E008060
S31580001A70040E0080040E0080240E008028666D749B
S31580001A80206E756C6C290A00286E756C6C290000B6
S31580001A9074100080900F0080A8100080900F008046
S31580001AA0900F0080900F0080900F0080C010008003
S31580001AB0B00F0080900F00809C100080B80F0080CF
S31580001AC0900F0080F4100080FC100080FC100080D5
S31580001AD0FC100080FC100080FC100080FC10008050
S31580001AE0FC100080FC100080FC10008058140080E0
S31580001AF0900F0080900F0080900F0080900F0080E4
S31580001B00900F0080900F0080900F0080900F0080D3
S31580001B10900F0080900F008038110080BC140080E8
S31580001B20900F0080900F0080900F008050110080F1
S31580001B30BC1400804C100080900F00805C110080E7
S31580001B40900F00806811008068140080DC1100808E
S31580001B50AC0F0080900F008084130080900F00806F
S31580001B6074140080900F0080900F008024100080F5
S30D80001B70E80F0080601400807C
S705800000007A
